:020000040800F2
:10000000C8040020B1430008B9430008BB430008FE
:10001000BD430008BF430008C143000800000000C2
:10002000000000000000000000000000C3430008C2
:10003000C543000800000000C74300080501000890
:10004000CB430008CB430008CB430008CB43000858
:10005000CB430008CB430008CB430008CB43000848
:10006000CB430008CB430008CB430008BD42000847
:10007000D3420008EB420008034300081B4300087A
:10008000334300084B430008CB430008CB43000830
:10009000CB430008CB430008CB430008CB43000808
:1000A000CB430008CB430008CB430008CB430008F8
:1000B000CB430008CB430008CB430008CB430008E8
:1000C000CB430008CB430008CB430008CB430008D8
:1000D000CB430008CB430008CB430008CB430008C8
:1000E000CB430008CB430008CB430008DFF810D017
:1000F00004F0B4FB04F082FA00480047E30700086C
:10010000C804002010B5FA480068401CF84908608F
:10011000F84803F0E3F810BD7CB505460C460A2DFF
:1001200004D00D2D06D1002020812EE060890930F9
:1001300060812AE0D4E90310CDE90001E0886689F6
:10014000304482B2A0882689304481B2EBB2EA48BA
:1001500000F0D7FF2089801D2081E1886289114449
:10016000083189B22069CDE90010E0886689304401
:1001700083B2A08826893044123082B2A0883044ED
:1001800081B2DD4800F028FE00BF00BF28467CBDDC
:1001900030B5DA4C2261E3600024D84D2C816C81AB
:1001A0002C46A080E18030BD1CB54FF400004FF418
:1001B000F07100234FF4A072CDE900101946CE482B
:1001C00000F00AFE1CBD08B5C94909680144009148
:1001D00000BFC7490968009A9142FAD108BD70B5BD
:1001E00005460C46002613E015F8011BC4A004F0D8
:1001F00067FB701CC6B2102E03D1C3A004F060FBD5
:100200000026601EC4B2002C02DDC0A004F058FB22
:10021000002CE9D170BD10B586B00446012144F22E
:10022000090003F08BFB40F2FF30ADF81400102002
:100230008DF8170002208DF8160005A9B44803F0C8
:10024000C1F80020B2490C3108600815ADF814005F
:1002500004208DF8170005A9AE4803F0B3F84FF459
:100260000070ADF8140003208DF8160018208DF8EA
:10027000170005A9A74803F0A5F801940020ADF8E0
:100280000800ADF80A00ADF80C00ADF810000C2025
:10029000ADF80E0001A9A04803F07DFD01219E48A4
:1002A00003F005FE06B010BD00BF9B49098801F0B0
:1002B00040010029F9D09849091D0880704700BF06
:1002C0009548008800F020000028F9D09248001DD1
:1002D0000088C0B2704730B595B0002012901390DE
:1002E000149011900220109010AB11AA2621814881
:1002F00001F0DFFD002875D1002212A97D4801F030
:100300001EFE0028F7D17C4800F06CFE00236FF041
:100310007F4208210846FFF73BFFBDF844107FA04D
:1003200004F0CEFA9DF8531080A004F0C9FA9DF8AD
:10033000481081A004F0C4FA0A210DF14900FFF72A
:100340004EFF71A004F0BCFA9DF85300082804D0B9
:1003500011286ED020286DD190E0BDF844004428CB
:1003600041D079A004F0ACFA7C4903C9CDE90E0173
:1003700012A80EAB0022602100905E4801F0AEFF93
:100380000446214676A004F09BFAACB9142109A8D2
:1003900004F029F91220089008AB09AA0121554858
:1003A00001F0DBFF044634B975A004F089FA10218E
:1003B00009A8FFF714FF00BF73A004F081FA00251D
:1003C0000AE0C5F1030174A004F07AFA4FF47A70E0
:1003D000FFF7F9FE681CC5B2032DF2DB454801F0BA
:1003E000B4FF4AE0FBE1202108A804F0FCF820203B
:1003F0000790002307AA08A93E4802F04EFA0546D6
:10040000294667A004F05CFA1DB13FA004F058FA39
:10041000E1E19DF81C1008A8FFF7E1FE3AA004F006
:100420004FFA62A004F04CFA644804F049FA002440
:100430000CE024E0CBE1C4F1030157A004F040FA42
:100440004FF47A70FFF7BFFE601CC4B2032CF2DBDE
:100450002DA004F035FA5AA004F032FA20200790BB
:1004600010235C4A49F20301224802F008FB0546CA
:10047000294659A004F024FA00BFACE100BF2021B6
:1004800008A804F0B0F820200790002307AA08A9C4
:10049000184802F002FA0446214641A004F010FA7E
:1004A0001CB119A004F00CFA95E19DF81C1008A8E5
:1004B000FFF795FE14A004F003FA49A004F000FA37
:1004C000202007901023434A41020A4802F0D7FA3D
:1004D0000446214640A004F0F3F9C92C07D144A0FA
:1004E00004F0EEF9464804F0EBF9002596E044E10B
:1004F00000000020640000200400002030000020E4
:1005000025303278000000000D0A00003A0000009B
:10051000000C014000080140003801404361726452
:100520003A20253034780D0A0000000053414B3A40
:1005300020253032780D0A0053657269616C3A20CB
:100540005B253032785D2000466F756E64204D4625
:100550002D436C61737369630D0A0000744D0008CC
:1005600041757468205B66662C66662C66662C6630
:10057000662C66662C66665D3A2025780D0A0000BA
:10058000646174613A0D0A0052652D7265616420E0
:10059000696E3A0D0A00000025642E2E200000002E
:1005A000524154532021257820000000466F756E7B
:1005B00064204C3120636172640D0A000455000808
:1005C000546F67676C6520746F204C3320417574DD
:1005D000683A2000644D00082578200D0A000000CC
:1005E000466972737420417574683A2000000000F7
:1005F000466F756E64204C3020636172640D0A0092
:10060000C0540008C5F10301AFF2740004F058F9BA
:100610004FF47A70FFF7D7FD681CC5B2032DF1DBEC
:10062000AFF21C1004F04CF99CA004F049F94FF40F
:1006300080451CE02020079010209E492B4607AAE9
:10064000CDE9001008A99C4802F051F904461CB9F4
:100650009DF82000902808D09DF820302246294699
:1006600096A004F02DF915B030BDA81C85B244F257
:100670003F008542DEDB95A004F022F995A004F04E
:100680001FF94FF410451FE049F20200854219D0CE
:1006900020200790102087492B4607AACDE900109B
:1006A00008A9854802F023F904461CB99DF82000EA
:1006B000902807D09DF82030224629468BA004F0D0
:1006C000FFF8D0E7681C85B249F203008542DBDD04
:1006D0007EA004F0F5F88AA004F0F2F88D4B0FCB61
:1006E000CDE90523CDE903018B480068C0B28DF840
:1006F0000C0089480068000A8DF80D0086480068E3
:10070000000C8DF80E0084480068000E8DF80F0074
:10071000102003A9012307AACDE9001008A9664803
:1007200002F0E5F804461CB99DF82000902806D098
:100730009DF82020214679A004F0C2F893E763A039
:1007400004F0BEF879A004F0BBF82020079007AAB7
:1007500008A9594802F0F3F804461CB99DF8200096
:10076000902806D09DF8202021466CA004F0A8F81F
:1007700079E756A004F0A4F828E024BB6EA004F0AA
:100780009FF871A004F09CF80A20FFF71CFD2020C0
:10079000079007AB08AA0121474802F02AFC04464B
:1007A00024B121466FA004F08BF85CE7AFF2302053
:1007B00004F086F89DF81C1008A8FFF710FD4FA064
:1007C00004F07EF802E06BA004F07AF803E071A078
:1007D00004F076F800BF00BF374801F052FD00BFBB
:1007E00041E770B503F065FE7249481EB0F1807FA5
:1007F00001D301201BE0481E4FF0E022506150174A
:100800000F22002807DA13071D0E6B4B00F00F04B0
:10081000241F1D5503E013071C0E684B1C5400BF1A
:1008200000204FF0E022906107201061002008B105
:10083000002070BD624800F0D0FC624800F062F910
:10084000604800F0CFFB00236FF07F42082108468C
:10085000FFF79EFC5CA004F033F84FF47A70FFF7CA
:10086000B2FC154801F0F3F95AA004F029F84FF44E
:100870007A70FFF7A8FC04E0FFF72DFD6420FFF776
:10088000A2FCF9E7584800BF0B484D49564A01659C
:100890004265002380F85C3000BF7047577269746E
:1008A0006520706572736F20343030302D343033F2
:1008B000663A2000644D0008640000202578202D51
:1008C0003E2025643A25780D0A0000004F4B0D0AA2
:1008D00000000000577269746520706572736F20A4
:1008E000393030302D393030333A20006572723A69
:1008F000202578202D3E2025643A25780D0A000019
:10090000577269746520736563746F7220313A2081
:10091000000000007C4D0008000000206572723A63
:10092000202D3E2025643A25780D0A00436F6D6D19
:1009300069743A2000000000466F756E64204C33E5
:1009400020436172640D0A004361726420616C721D
:100950006561647920696E697469616C697A65643E
:100960000D0A00006572723A202D3E2025780D0A8E
:1009700000000000466F756E6420556E6B6E6F77D9
:100980006E2049534F31343434332D342043617257
:10099000640D0A00466F756E6420556E6B6E6F773E
:1009A0006E2049534F31343434332D332043617238
:1009B000640D0A004019010018ED00E000E400E0B9
:1009C00005000020040000204C6F6164696E672EF2
:1009D0002E0D0A0052656164657220696E6974208B
:1009E0006F6B0D0A000000004400002003B500BF3B
:1009F0000199491E01910029FAD10CBD0246084611
:100A0000704710B503460C464FF03330FE4908607E
:100A100021461846FFF7F2FFFB490C310860FB48FE
:100A2000006840F202218843F849086008460068DF
:100A300040F202210843F549086010BD10B5034695
:100A40000C464FF03330F049086021461846FFF756
:100A5000D5FFED490C310860EC48006820F40070C7
:100A6000EA4908600846006840F40070086010BD5C
:100A700010B50446E548006820F02000E34908600E
:100A800032212046FFF7B2FF10BD38B504460121E0
:100A9000082002F053FF0121042002F04FFF40F232
:100AA0002330ADF8000010208DF8030003208DF8EE
:100AB00002006946D5480C3802F084FC4FF0333010
:100AC000D1490860D148006840F223310843CF493A
:100AD00008600A212046FFF789FFCC48006820F013
:100AE0000100CA4908600A212046FFF77FFFC74876
:100AF000006840F00100C5490860FA212046FFF770
:100B000075FF38BD10B504462046FFF7BEFF2046EE
:100B1000FFF7AEFF01212046FFF773FFFA212046C1
:100B2000FFF764FF28212046FFF76BFFE0212046F6
:100B3000FFF767FF00212046FFF780FF03212046D3
:100B4000FFF77CFF0C212046FFF778FF09212046A4
:100B5000FFF774FF17212046FFF770FF0921204699
:100B6000FFF76CFF3E212046FFF768FF89212046F2
:100B7000FFF764FF49212046FFF760FF0821204668
:100B8000FFF75CFF0D212046FFF758FF0A212046A2
:100B9000FFF754FF13212046FFF750FF1521204691
:100BA000FFF74CFF0F212046FFF748FFE1212046C9
:100BB000FFF727FF00212046FFF740FF11212046C5
:100BC000FFF73CFF15212046FFF738FF03212046A1
:100BD000FFF734FF0F212046FFF730FF05212046A5
:100BE000FFF72CFF2D212046FFF728FF3421204658
:100BF000FFF724FF41212046FFF720FF0221204676
:100C0000FFF71CFF0B212046FFF718FF0A212046A3
:100C1000FFF714FF33212046FFF710FF372120464E
:100C2000FFF70CFF0F212046FFF708FFC0212046E9
:100C3000FFF7E7FE17212046FFF700FF15212046AA
:100C4000FFF7FCFEC1212046FFF7DBFE41212046D5
:100C5000FFF7F4FEC2212046FFF7D3FE0021204615
:100C6000FFF7ECFE12212046FFF7E8FE8021204628
:100C7000FFF7E4FE36212046FFF7C3FE4021204661
:100C8000FFF7DCFE3A212046FFF7BBFE6621204637
:100C9000FFF7D4FEB0212046FFF7B3FE0021204627
:100CA000FFF7CCFEB1212046FFF7ABFEA021204686
:100CB000FFF7C4FEB4212046FFF7A3FE0221204621
:100CC000FFF7BCFEB6212046FFF79BFE022120461F
:100CD000FFF7B4FE01212046FFF7B0FEE9212046D0
:100CE000FFF78FFE00212046FFF7A8FEF7212046E0
:100CF000FFF787FEA9212046FFF7A0FE51212046DD
:100D0000FFF79CFE2C212046FFF798FE822120460B
:100D1000FFF794FE11212046FFF773FE3C49204661
:100D2000FFF764FE29212046FFF76BFE3949204674
:100D3000FFF75CFE10BD10B5029C10BD10B5034658
:100D400000244FF04430304908603048006820F4F7
:100D500080702E4908602C4808300068C1B21846DF
:100D6000FFF74CFE04462948006840F4807027498C
:100D70000860204610BD2DE9F04180460C4615461E
:100D80001E46069F2A214046FFF73BFE210A4046A9
:100D9000FFF754FEE1B24046FFF750FE290A4046F5
:100DA000FFF74CFEE9B24046FFF748FE2B214046D4
:100DB000FFF727FE310A4046FFF740FEF1B24046FA
:100DC000FFF73CFE390A4046FFF738FEF9B24046CD
:100DD000FFF734FEBDE8F0812DE9FF4F81B00D46ED
:100DE00016461F46DDE90E843B4632462946CDF8BD
:100DF00000800198FFF7BFFF2C210198FFF701FE4B
:100E0000A8EB070008E00000000801400C0C0140BE
:100E1000A086010020A107001FFA80FA701B1FFAAC
:100E200080FB4FF000090FE0E1B20198FFF706FEEA
:100E3000C4F307210198FFF701FEC4F307410198AD
:100E4000FFF7FCFD09F101090AFB0BF04845EBD166
:100E500005B0BDE8F08F2DE9FF4F85B00C46154673
:100E60001F46DDE913891298C01B00B20490281BAD
:100E700000B20390049810B909B0BDE8F08F039850
:100E800000B9F9E74FF0000ABB46AC420DDD03980C
:100E900003F05AFC0646049803F056FC31460190D4
:100EA00003F014FC80F000400AE0039803F04CFCCF
:100EB0000646049803F048FC3146019003F006FC16
:100EC0000290264641E00BEB090080B2009006EB51
:100ED000090082B25B4631460598FFF74CFF504649
:100EE000029903F09BFB8246384603F036FC5146DC
:100EF000009003F093FB019003F034FC1FFA80FB99
:100F00002C210598FFF77DFD0020019012E008F0EC
:100F1000FF010598FFF792FDC8F307210598FFF739
:100F20008DFDC8F307410598FFF788FD0198401C27
:100F3000C0B2019009FB09F001998842E7DCAC429C
:100F400001DD701E00E0701C86B2AE42BBD14FF0D6
:100F50007E51504603F062FB824600BF8CE730B5FD
:100F600005460C46E1B22846FFF768FDC4F30721A9
:100F70002846FFF763FDC4F307412846FFF75EFDEF
:100F800030BD2DE9F8478246884615461E46DDE904
:100F9000099705EB0900401E80B2009008EB06009F
:100FA000401E82B22B4641465046FFF7E4FE2C21FC
:100FB0005046FFF726FD00240CE03A5D601C385CCB
:100FC00042EA0022A01C385C42EA00415046FFF78A
:100FD000C6FFE41C06FB09F000EB4000A042ECD188
:100FE000BDE8F88718B5044640F2DF10002340F250
:100FF0003F12194600902046FFF7BDFE2C212046E7
:10100000FFF7FFFCFF206049086000201FE05F49F8
:10101000096821F400715D4A11601146096841F4C4
:10102000007111601146096821F4007111601146C8
:10103000096841F4007111601146096821F40071DA
:1010400011601146096841F400711160401CB0F54F
:10105000163FDCD918BD2DE9FF4F81B08A461746EF
:101060009846DDE90EB507EB0B00401E80B20090FC
:101070000AEB0800401E82B23B4651460198FFF73A
:101080007AFE2C210198FFF7BCFC4FF000090024E8
:101090002EE02046641C2E5C06F08000A0B1803E4D
:1010A00000BFA01C2A5C601C285C42EA00202A5D6C
:1010B00040EA02410198FFF752FF09F10309701E4F
:1010C0000600EED1E41C12E000BFA01C2A5C601CEC
:1010D000285C42EA00202A5D40EA02410198FFF7BD
:1010E0003EFF09F10309E41C701E0600EDD100BFAC
:1010F00008FB0BF000EB40004845CAD805B0BDE83E
:10110000F08F2DE9FF4F81B00F4614469846DDE978
:101110000E9AE01D80B20090381D82B223463946F7
:101120000198FFF728FE2C210198FFF76AFC0025A3
:1011300016E0002610E0CB4608EB8800144908446E
:10114000805D0121A940084000B1D346594601986D
:10115000FFF705FF701CC6B2052EECDB681CC5B29C
:10116000082DE6DB05B0BDE8F08F10B50446074852
:10117000006840F020000549086041F288312046AF
:10118000FFF734FC10BD00000C0801400C0C0140BE
:101190008C4D000870B505460C462146444802F0C7
:1011A0002DFD00BF0121424802F07BFD0028F9D04F
:1011B0003F4802F025FDC0B270BD70B505460C4633
:1011C0002CB14FF480713B4802F0ABF904E04FF4CE
:1011D0008071384802F0A3F970BD30B587B004467D
:1011E0000121082002F0AAFB0121880302F0B3FBD1
:1011F0004FF48070ADF8180010208DF81B0003200C
:101200008DF81A0006A92B4802F0DCF800212046D0
:10121000FFF7D3FF4FF42040ADF8180003208DF8FE
:101220001A0018208DF81B0006A9234802F0CAF8FE
:101230004FF48040ADF8180048208DF81B0006A937
:101240001D4802F0BFF80020ADF804004FF4827092
:10125000ADF806000020ADF80800ADF80A00ADF8C2
:101260000C004FF40070ADF80E001020ADF8100027
:101270000020ADF812000720ADF8140001A90C48B9
:1012800002F0E6FB00210A4802F0E6FC01210848D2
:1012900002F083FC00BF0221054802F002FD002895
:1012A000F9D0034802F0ACFCC5B207B030BD000075
:1012B0000038004000080140000C014001784278ED
:1012C000027082784270C2788270C17070472DE9D6
:1012D000FF4F81B016461F464FF00009C6F3471571
:1012E000E81D80064FEA106AB346F01706EB50700F
:1012F000C2103846029903F05DF9A8462C4656E024
:10130000601E57F82000009044451FD0082D45D19D
:10131000E11704EB5171C910A4EBC10104293DD1BF
:101320009DF80000FE49085C8DF800009DF8010062
:10133000085C8DF801009DF80200085C8DF8020041
:101340009DF80300085C8DF8030027E008EB05001A
:1013500000F0FF086846FFF7B1FF9DF80000F04974
:10136000085C8DF800009DF80100085C8DF8010014
:101370009DF80200085C8DF802009DF80300085CEF
:101380008DF803009DF80000E64911F80910484067
:101390008DF8000009F1010000F0FF09601B57F80B
:1013A00020000099484047F82400601CC4B254450E
:1013B000A6DB05B0BDE8F08FF0B50646002000249E
:1013C0000CE002F0010707B1484001F080054F062C
:1013D000390E05B159405210671CFCB2082CF0DBE5
:1013E000F0BD18B50B788DF800300B798DF8013011
:1013F0000B7A8DF802300B7B8DF8033002F003037B
:101400001DF803300B70531C03F003031DF8033069
:101410000B71931C03F003031DF803300B72D31CF4
:1014200003F003031DF803300B7318BD2DE9FF41D2
:1014300080460D461746002406E0285DB849085C42
:101440000DF80400601CC4B2102CF6DB01220DF173
:1014500001014046FFF7C5FF02220DF1020140469F
:10146000FFF7BFFF03220DF103014046FFF7B9FF6D
:1014700000246EE01DF82400A100491C1DF8011095
:101480004840A100891C1DF801104840A100C91C5A
:101490001DF8011080EA01061DF82400A100491C76
:1014A0001DF8011080EA01021B2302214046FFF7CC
:1014B00083FF1DF82410484080EA060105F8241037
:1014C000A000401C1DF80000A100891C1DF801109F
:1014D00080EA01021B2302214046FFF76DFFA100B5
:1014E000491C1DF80110484080EA0601A000401C7C
:1014F0002954A000801C1DF80000A100C91C1DF883
:10150000011080EA01021B2302214046FFF754FF2D
:10151000A100891C1DF8011048407040A100891CE1
:101520006854A000C01C1DF800001DF8241080EABB
:1015300001021B2302214046FFF73EFFA100C91C08
:101540001DF8011048407040A100C91C6854601C7F
:10155000C4B2042C8EDB002405E0285D395D4840D0
:101560002855601CC4B2102CF7DBBDE8FF81F0B534
:1015700007460D461646002405E0285D6849085CCC
:101580002855601CC4B2102CF7DB0122691C3846B8
:10159000FFF727FF0222A91C3846FFF722FF03228C
:1015A000E91C3846FFF71DFF002405E0285D315D8A
:1015B00048402855601CC4B2102CF7DBF0BD2DE963
:1015C000F04180460E4615461F46002405E0305D7A
:1015D000295D48403055601CC4B2102CF7DB012453
:1015E00009E005EB041231464046FFF71FFF601C7F
:1015F000C4B2781EC7B2012FF3DC05EB04123146EA
:101600004046FFF7B4FFBDE8F08108B5534203F050
:101610000303CB5C8DF80030C2F1050303F0030334
:10162000CB5C8DF80130C2F1060303F00303CB5C01
:101630008DF80230C2F1070303F00303CB5C8DF891
:101640000330009B0B6008BD18B50B788DF8003097
:101650000B798DF801300B7A8DF802300B7B8DF809
:101660000330534203F003031DF803300B70C2F143
:10167000010303F003031DF803300B71C2F10203F1
:1016800003F003031DF803300B72C2F1030303F0F0
:1016900003031DF803300B7318BD2DE9FF4F83467C
:1016A0000D469246002407E0285D1AF804104840D1
:1016B0000DF80400601CC4B2102CF5DB00248BE094
:1016C000A000C01C1DF80000A100891C1DF801101D
:1016D00080EA0107A000401C1DF800001DF824103E
:1016E00080EA010887EA08061B233246092158468A
:1016F000FFF762FE0646A000801C1DF800001DF8E2
:10170000241080EA01021B2304215846FFF754FEEF
:1017100080EA0609A000C01C1DF80000A10003E03B
:101720008C5200088C540008491C1DF8011080EAF6
:1017300001021B2304215846FFF73EFE46401DF8D8
:101740002400A100C91C1DF8011080EA01021B231E
:1017500002215846FFF730FEA100C91C1DF80110F8
:1017600071404840A100C91C68541B233A4602211D
:101770005846FFF721FEA100891C1DF8011081EADF
:1017800009014840A100891C6854A000801C1DF874
:101790000000A100491C1DF8011080EA01021B2372
:1017A00002215846FFF708FEA100491C1DF8011050
:1017B00071404840A100491C68541B234246022145
:1017C0005846FFF7F9FD1DF8241081EA0901484049
:1017D00005F82400601CC4B2042CFFF671AF01228E
:1017E000691C5846FFF730FF0222A91C5846FFF734
:1017F0002BFF0322E91C5846FFF726FF002405E0D3
:10180000285D7149085C2855601CC4B2102CF7DBB8
:10181000BDE8FF8FF0B507460D461646002405E0EB
:10182000285D315D48402855601CC4B2102CF7DBA0
:101830000122691C3846FFF707FF0222A91C38461F
:10184000FFF702FF0322E91C3846FFF7FDFE0024E4
:1018500005E0285D5C49085C2855601CC4B2102C6A
:10186000F7DBF0BD2DE9F04180460F4615461E46D8
:10187000344605EB061239464046FFF7CBFF09E038
:10188000601EC4B205EB041239464046FFF705FF5F
:10189000701EC6B2012EF3DC002405E0385D295D20
:1018A00048403855601CC4B2102CF7DBBDE8F0810D
:1018B000F0B50646059C2546914200D81D460020FD
:1018C00007E00F5C12F800C087EA0C070F54471CB2
:1018D000F8B2A842F5DBF0BD2DE9F041B6B00546FF
:1018E000884616461F463C9CB0210AA802F07BFEA3
:1018F0000AAB802241462846FFF7E9FC17B1012FC9
:1019000029D108E00A230AAA31462846FFF7AAFF90
:1019100036B0BDE8F0810CB905F11004202102A811
:1019200002F061FE1022314602A802F043FE0A23B3
:101930000AAA31462846FFF795FF102003462246A3
:10194000314600902846FFF7B3FF102202A9204637
:1019500002F030FEDCE700BFDAE72DE9F041AEB07F
:101960000546884616461F46349CB02102A802F060
:101970003AFE02AB802241462846FFF7A8FC17B189
:10198000012F1FD108E00A2302AA31462846FFF79B
:1019900016FE2EB0BDE8F08104B92C461020034697
:1019A0002246314600902846FFF782FF0A2302AA0A
:1019B00031462846FFF703FE10223146204602F04A
:1019C000F9FDE6E700BFE4E78C53000870B5044674
:1019D0000D4616460121206DFFF7EFFB05F07E0155
:1019E000206DFFF7D7FB3146206DFFF7D3FB0021B9
:1019F000206DFFF7E2FB70BD2DE9F04104460E4675
:101A0000174698460121206DFFF7D7FB06F07E01AF
:101A1000206DFFF7BFFB002506E018F80510206DCC
:101A2000FFF7B8FB681CC5B2BD42F6DB0021206D94
:101A3000FFF7C3FBBDE8F08170B504460D460121F8
:101A4000206DFFF7BAFB05F07E0242F08001206DA9
:101A5000FFF7A0FB0021206DFFF79CFB064600214D
:101A6000206DFFF7AAFB304670BD2DE9F84F044604
:101A70008A4617461E46DDF828B00FB9BDE8F88F34
:101A80000AF07E0040F08000009000250121206DCA
:101A9000FFF793FB781EC7B2206D0099FFF77AFB22
:101AA00025E0EDB9BBF1000F1AD04FF00008584601
:101AB00007E00121814041EA080101F0FF08411CD3
:101AC000C8B20728F5DD206D0099FFF763FB81465A
:101AD000705D20EA080009EA08010843307004E05C
:101AE000206D0099FFF756FB7055681CC5B2BD42CA
:101AF000D7DB0021206DFFF74DFB70550021206DD5
:101B0000FFF75BFB00BFB9E72DE9F04105460E4644
:101B1000144631462846FFF78FFF074647EA04027E
:101B200031462846FFF752FFBDE8F0812DE9F0412C
:101B300005460E46144631462846FFF77DFF074608
:101B400027EA040231462846FFF740FFBDE8F0814E
:101B50002DE9F04707460E4690461C46002202211A
:101B60003846FFF733FF04220A213846FFF72EFFDD
:101B7000802214213846FFF7C7FF33464246122120
:101B80003846FFF739FF032202213846FFF71EFFD0
:101B900041F2883911E00A213846FFF74DFF05462A
:101BA00005F0040000B109E0A9F1010080B25FEA8C
:101BB000000902D10320BDE8F087ECE700BF002256
:101BC00002213846FFF702FF44213846FFF734FF71
:101BD000207042213846FFF72FFF60700020EAE7AF
:101BE0000022826500BF826D8A42FCD9704770B5C1
:101BF000054628212846FFF71FFF044604F003008E
:101C0000032805D044F0030228212846FFF7DEFE12
:101C100070BD70B504460F2202212046FFF7D6FEA4
:101C20004B212046FFF7DCFFA56D06E0A16D05F115
:101C3000F500814201D9032070BD02212046FFF743
:101C4000FBFE00F010000028F0D100BFF4E710B553
:101C50000446206DFFF7C1FA32212046FFF7C0FF8E
:101C60002046FFF7D6FF032800D110BD8022542163
:101C70002046FFF7ABFEA92256212046FFF7A6FE1D
:101C8000052258212046FFF7A1FE00225A212046B6
:101C9000FFF79CFE40222A212046FFF797FE3D22B7
:101CA00022212046FFF792FE2046FFF7A0FF3221B7
:101CB0002046FFF795FF0020D7E710B50446032222
:101CC00028212046FFF732FF10BD10B504464C21F5
:101CD0002046FFF7B1FE00F0700010BD70B505465C
:101CE0000C462846FFF7F1FFA0420AD070224C2193
:101CF0002846FFF71BFF04F070024C212846FFF72F
:101D000003FF70BD2DE9FF4F85B08A46DDE9144819
:101D1000139EB8F1000F02D098F8000000E00020F8
:101D200003901699039800EB0110C0B202900022B4
:101D300002210598FFF74AFE7F2208210598FFF748
:101D400045FE802214210598FFF7DEFE1221089B34
:101D5000129A0598FFF750FE1A21029A0598FFF78C
:101D600035FE524602210598FFF730FEBAF10C0FFE
:101D700004D180221A210598FFF7C6FE44F62060A0
:101D8000049015E008210598FFF756FE05460798D0
:101D9000284000B10DE005F0010018B1032009B0A2
:101DA000BDE8F08F0498401E049008B90320F6E7C0
:101DB000E8E700BF0C210598FFF73EFE074607F055
:101DC000130018B1781CC7B20120E8E7F6B1ECB1F6
:101DD00014210598FFF730FE05462078A84201DA65
:101DE0000420DCE72570169833462A46122100901D
:101DF0000598FFF73AFE18210598FFF71DFE00F041
:101E00000709B8F1000F01D088F8009007F008002A
:101E100008B10220C3E786B37CB3179868B3207873
:101E2000012804D1B9F1040F01D1FF20B7E72078D0
:101E3000022802DBB9F1000F01D00720AFE72078BC
:101E4000801EC2B201AB31460598FFF781FE834682
:101E5000BBF1000F01D05846A1E72078801E305C0E
:101E60009DF80410884206D12078401E305C9DF811
:101E70000510884202D0072091E700E000BF002053
:101E80008DE72DE9F04F87B007460C4615461E46F4
:101E9000DDE912ABDDE910893020069023468DE89C
:101EA000600F0C213846069AFFF72CFF07B0BDE8FB
:101EB000F08FFFB585B0074615461C46002087F811
:101EC0005C0015B12078022802DA042009B0F0BDC8
:101ED00080221C213846FFF729FE072004900020AD
:101EE00004AACDE901202B46012206A90094039003
:101EF0003846FFF7C6FF06460EB13046E6E72078C3
:101F0000022802D19DF8100008B10120DEE7002070
:101F1000DCE770B506460C4615462B4622462621C0
:101F20003046FFF7C6FF70BD70B506460C46154635
:101F30002B46224652213046FFF7BBFF70BD2DE9EC
:101F4000F74F90B00F46914601200C90B9F1500F19
:101F500003DD062013B0BDE8F08F80221C2110980D
:101F6000FFF7E4FD00200F9080E10C98012804D0D9
:101F7000022812D0032828D11FE093208DF82000DA
:101F800000200B90B9F1000F04D03878042801DD4F
:101F9000012000E000200D9019E095208DF8200030
:101FA00003200B90B9F1000F04D03878072801DD29
:101FB000012000E000200D9009E097208DF820001E
:101FC00006200B9000200D9001E00520C2E700BF25
:101FD00008210B9801FB109044B2002C00DA002479
:101FE00002260D9828B188223046711CCEB208A96D
:101FF0000A542046E21704EB5272D2102146E3172E
:1020000004EB5373DB10A4EBC3030BB1012300E01B
:1020100000231A4402F0FF0BBBF1000F18D00D99FA
:1020200009B1032100E004210846834500DD834611
:1020300000250AE00B994A19791C8B5C3146721C09
:10204000D6B208AA5354691CCDB25D45F2DB00BF7D
:102050000D9810B104F1080044B200200E90AEE0DB
:10206000202C25DB70208DF821009DF822009DF8A2
:10207000231048409DF8241048409DF82510484002
:102080008DF826000DF12703072208A91098FFF705
:102090005FFD8246BAF1000F01D050465AE700209A
:1020A0000590092007900DF126080320049026E0F2
:1020B0002046E11704EB5171C910A4EBC101C9B26C
:1020C0000591E11704EB5171C1F3C705A81CC6B215
:1020D0009DF8140000EB0610C0B28DF821009DF8A9
:1020E000140008B1012000E000203044C0B2079085
:1020F00008A800EB0608C6F10900C0B204909DF8DC
:10210000140006909DF81410069801EB0010C2B25E
:102110001A211098FFF75AFC002105AA04AB069873
:10212000CDE90032CDE90201434608A9079A10988B
:10213000FFF7A7FE8246BAF1020F35D11C21109895
:10214000FFF77AFC0390039800F0200008B102200A
:1021500000E7039800F01F000290029808B92020C1
:1021600002900298A04201DC0520F3E6029844B2F6
:10217000601EC11700EB5171C910A0EBC101CDB2B7
:102180002046E11704EB5171C910491C0DB1012221
:1021900000E000221144CEB208A8805D0121A940D0
:1021A000084308A988550AE0BAF1000F01D050464B
:1021B000D0E6202C02DB01200E9000E020240E98B7
:1021C00000283FF44DAF9DF82200882801D103205C
:1021D00000E0022006469DF82200882801D1032055
:1021E00000E00420834600250AE03046711CCEB290
:1021F00008A9095C0B984219781C8154681CC5B267
:102200005D45F2DB9DF81000032802D19DF8140013
:1022100008B101209EE60DF12203012241461098EB
:10222000FFF796FC8246BAF1000F01D0504691E6C6
:102230009DF8220098F80110884205D19DF82300EE
:1022400098F80210884201D0072083E698F8000031
:1022500000F0040020B10C98401CC0B20C9004E0C7
:1022600001200F9098F80000F87200BF0F98002826
:102270003FF47BAE0C9800EB4000401C387000200F
:1022800068E630B585B00546002085F85C00502032
:102290008DF8100000208DF811000DF112030222BC
:1022A00004A92846FFF754FC044614B1204605B0A3
:1022B00030BD00200090019002900346042204A942
:1022C00003902846FFF7DDFD0446032C01D10020D2
:1022D000EDE70CB90120EAE72046E8E72DE9F043F5
:1022E00089B007460C4615461E46DDF840804FF083
:1022F00010098DF818408DF81950002005E0325C67
:10230000811C06AB5A54411CC8B20628F7DB0020DA
:1023100008E008F101010A5C00F1080106AB5A541B
:10232000411CC8B20428F4DB002002900390049002
:102330000C21059006AB4A46CDE900100E21384627
:10234000FFF7E0FC09B0BDE8F08310B504460822B1
:1023500010212046FFF7EAFB10BD2DE9FF41804622
:102360000F4614461D4614B12878122803DA0420BB
:1023700004B0BDE8F081302020706770A31C0222F9
:1023800021464046FFF7E4FB06460EB13046EFE734
:1023900001200021CDE9005123460422CDE902109D
:1023A00021464046FFF76DFDE2E72DE9F0438DB091
:1023B00081460E4614461F460EB1102C03DD062042
:1023C0000DB0BDE8F0832246314608A802F0F2F8CD
:1023D00008A80319224608A94846FFF7B9FB054695
:1023E0000DB12846ECE7A01CC4B24FF03008122013
:1023F00007900020069006AA07ABCDE903200293C0
:10240000059008A808AB42460C21CDE9004048469B
:10241000FFF778FC05461FB1032D01D10020CFE75F
:102420000DB12846CCE79DF81C00012803D19DF88A
:102430001800042801D00120C2E79DF820000A28D6
:1024400001D0FF20BCE70020BAE72DE9F843804621
:102450000F4615461E460DB1102E02DA0620BDE8C5
:10246000F883A0208DF800008DF80170002302226F
:1024700069464046FFF799FF04460CB12046EEE757
:102480000023324629464046FFF78FFF04460CB131
:102490002046E4E70020E2E72DE9FC4180460E46B5
:1024A00014461F460CB1042F02DA0620BDE8FC8159
:1024B000A2208DF800008DF801602068CDF80200A0
:1024C0000023062269464046FFF76FFF05460DB11F
:1024D0002846EBE70020E9E7FFB581B007460D4647
:1024E00016468DF800508DF80160002302226946DF
:1024F0003846FFF75AFF044614B1204605B0F0BD38
:102500000123042204A93846FFF74FFF04460CB10B
:102510002046F3E70020F1E770B506460C46154665
:102520002B462246C0213046FFF7D6FF70BD70B55E
:1025300006460C4615462B462246C1213046FFF77B
:10254000CBFF70BD70B505460C4600232246C22164
:102550002846FFF7C1FF70BDF8B506460C46B0200F
:102560008DF800008DF801400023022269463046B4
:10257000FFF71BFF05460DB12846F8BD0020FCE71C
:10258000F0B587B006460F4614461220019001AB05
:1025900002AA39463046FFF7E0FE054675B99DF8B8
:1025A0000B0000069DF80A1040EA01409DF8091052
:1025B00040EA01209DF8081008432060284607B033
:1025C000F0BD70B586B006460D461446E0B28DF8F3
:1025D0000C008DF80400C4F307208DF80D008DF871
:1025E0000500C4F307408DF80E008DF80600200E9C
:1025F0008DF80F008DF807009DF80400C043C0B2AD
:102600008DF808009DF80500C043C0B28DF80900A0
:102610009DF80600C043C0B28DF80A009DF807007F
:10262000C043C0B28DF80B008DF812508DF81050D9
:10263000E843C0B28DF813008DF81100102301AAF1
:1026400029463046FFF701FF06B070BD2DE9F04185
:102650008EB080460E4615461B208DF824000020C3
:1026600004E0325C09AB411C5A54C8B20428F8DBC0
:102670000DF12903052209A94046FFF769FA04462E
:102680001CB120460EB0BDE8F08130270020089034
:1026900005200790002008AA07ABCDE9032002938C
:1026A000059009A8072109AB3A46CDE900100C2195
:1026B0004046FFF727FB04469DF8240028709DF84C
:1026C000250068700CB12046DCE70020DAE70146FF
:1026D00001F07F0110291CD008DC0A2922D2DFE892
:1026E00001F0161B21210E2121211210112911D0D8
:1026F00018290AD0202911D0402913D110E0FF2039
:1027000070470320FCE70420FAE70520F8E70620DD
:10271000F6E700BF0720F3E70820F1E70120EFE725
:102720000220EDE70020EBE72DE9F0438046DDE9EC
:10273000074504F0040C05F004094CEA490C03F0C9
:1027400004094CEA690CC2F380094CEA090005F05F
:10275000020C4FEA8C0C04F002094CEA490C03F01D
:1027600002094CEA090CC2F340094CEA09064FEA97
:10277000C57C4FEA1C7C04F001094CEA890C03F08B
:1027800001094CEA490C02F001094CEA09074FF033
:102790000F0C2CEA060C6FEA00096CF31F1981F884
:1027A00000906FEA070C60F31F1C81F801C046EA35
:1027B000071C81F802C0BDE8F0832DE9F04FA5B0F9
:1027C00004468A4617469846DDE92E9B402115A807
:1027D00001F009FF3C2F03DD042025B0BDE8F08F98
:1027E000B81CC6B294F85C0008B10B2000E00A20C7
:1027F0008DF854008DF855B094F85C0008B90120AC
:1028000000E0002084F85C00402105A801F0EBFE08
:10281000402004903A4651460DF1560001F0CAFEA0
:1028200024212046FFF708F900F0800080280CD012
:1028300015A88319324615A92046FFF789F90546E0
:102840000DB12846C9E7B01CC6B2002004ABCDE9E3
:102850000030029005AB324615A903902046FFF7E1
:1028600010FB05460DB12846B7E79DF81000001F84
:1028700099F80010884201DD0420AEE79DF81000B1
:10288000001F89F800009DF81000021F0DF11601CD
:10289000404601F08FFE00209FE72DE9F04186B011
:1028A00007460C4615461E46FEA00068059006F039
:1028B0000F0040F050008DF8150024213846FFF736
:1028C000BBF800F08000802801D0042000E0022046
:1028D00080460020CDE9005002902346424605A9DB
:1028E00003903846FFF7CDFA06B0BDE8F0812DE938
:1028F000F04387B007460D4616461C46DDE90E89B3
:102900000F2103A801F06FFEE74800680290E0B2D3
:102910008DF80900200A8DF80A004A4641460DF15B
:102920000B0001F047FE00202B46132202A9CDE93F
:1029300000603846FFF741FF07B0BDE8F083FEB501
:1029400006460C461546AA20029000202346012286
:1029500002A9CDE900503046FFF72FFFFEBDFEB5BE
:1029600007460D4616461C46D0A000680290E0B20D
:102970008DF80900200A8DF80A0000202B4603225A
:1029800002A9CDE900603846FFF717FFFEBD7CB510
:1029900005460E46022000906A4601A92846FFF728
:1029A000B8FA04460CB1022C09D100222946284667
:1029B000FFF7C5FA044614B9D5F801003060204687
:1029C0007CBD38B504460D4622214F20015500201C
:1029D00019E0B749095C04F12002125C514004F18E
:1029E000400200F10A03D15404F12001C21D8B5CA6
:1029F0002031421D8B54AE4AC11D525C04F140018E
:102A00000A54411CC8B20528E3DB002000900023D3
:102A100004F140022946606DFEF79FFF38BD38B5CE
:102A200004460D4611213F20015500201BE0A04A1D
:102A3000011D515C04F12002031DD25C514004F1E0
:102A400030029B1DD15404F120015A1C8B5C1031C3
:102A5000421D8B54964A00F10B01525C04F1300187
:102A60000A54411CC8B20528E1DB00200090002375
:102A700004F130022946606DFEF76FFF38BD2DE985
:102A8000F0439DB004460E4690469946142118A87E
:102A900001F0A9FD1120179086A000681690F0B2F1
:102AA0008DF85900300A8DF85A00002017A918AB8C
:102AB0000422CDE9001016A92046FFF77EFE054648
:102AC0001DB99DF86000902809D01DB128461DB0A1
:102AD000BDE8F0839DF86000C030C0B2F7E7616DDB
:102AE00001F11000102101F07EFD00200090012373
:102AF0000DF161024146606DFEF7EEFE1D210EA84C
:102B000001F071FD6848001D00680D9010226849B1
:102B10000DF1350001F04EFD0DAF9DF86110202044
:102B2000C1550F220DF1620107F1110001F042FDC4
:102B30001021606D01F057FD0020009001237A1CE8
:102B40004146606DFEF709FF0020009001230DF162
:102B500045024146606DFEF700FF242104A801F004
:102B600042FD21200390002003A904AB2122CDE9DE
:102B700000100DA92046FFF720FE05461DB99DF85F
:102B8000100090280DD09DF81000062801D10820D3
:102B90009DE70DB128469AE79DF81000C030C0B2FD
:102BA00095E7616D01F11000102101F01CFD00207E
:102BB000009001230DF111024146606DFEF78CFE7D
:102BC0000020009001230DF121024146606DFEF7C7
:102BD00083FEDDF81100E060DDF825102161BDF80D
:102BE0002900A082DDF82B10C4F81610BDF82F00C4
:102BF00060830020A083E08310220DF1610104F1C5
:102C0000200001F0D7FC41462046FFF708FF41466F
:102C10002046FFF7D6FE284659E72DE9F0439DB040
:102C200004460E4690469946142118A801F0DBFC94
:102C30001120179020A000681690F0B28DF859006E
:102C4000300A8DF85A00002017A918AB0322CDE9ED
:102C5000001016A92046FFF7B0FD05461DB99DF8E6
:102C60006000902809D01DB128461DB0BDE8F08352
:102C70009DF86000C030C0B2F7E7E17B606DC177BE
:102C8000A17B606D8177617B606D4177217B606D99
:102C90000177217F606DC174606DC175606DC17613
:102CA000A08B0BE0E000BCA5A85400087800000051
:102CB0009854000870000000760000000112606D5A
:102CC0008174606D8175606D8176A17F606D4174E6
:102CD000606D4175606D4176E08B0112606D01742D
:102CE000606D0175606D01760020009001230DF18B
:102CF00061024146606DFEF7EFFD1D210EA801F057
:102D000072FCF84800680D901022F7490DF135006B
:102D100001F050FC0DAF9DF861102020C1550F222D
:102D20000DF1620107F1110001F044FCE07B616DDF
:102D3000C873A07B616D8873607B616D4873207B75
:102D4000616D0873207F616DC870616DC871616DC0
:102D5000C872A08B0012616D8870616D8871616DA1
:102D60008872A07F616D4870616D4871616D4872B5
:102D7000E08B0012616D0870616D0871616D087201
:102D80000020009001237A1C4146606DFEF7E5FDAE
:102D90000020009001230DF145024146606DFEF7D1
:102DA000DCFD242104A801F01EFC2120039000205A
:102DB00003A904AB2122CDE900100DA92046FFF79D
:102DC000FCFC05461DB99DF8100090280DD09DF81B
:102DD0001000062801D1082047E70DB1284644E736
:102DE0009DF81000C030C0B23FE710220DF1610124
:102DF00004F1200001F0DEFB41462046FFF70FFE04
:102E000041462046FFF7DDFD28462EE730B5044653
:102E10000B78002003E0451C4D5D0D54401C551EF1
:102E20008542F8D84B5530BD30B50346002007E049
:102E30000C5C6500441C0C5D45EAE4140C54401C19
:102E4000541E8442F4D80C5D6406250E541E0D55A4
:102E500030BDF0B585B006460F4614461D4600202D
:102E600001900290039004900090002301AA39463B
:102E7000706DFEF772FD102201A9204601F09AFB49
:102E8000102221463046FFF7CFFF9DF8040000F0E6
:102E90008000802803D1E07B80F08700E07310225F
:102EA0002146284601F086FB102229463046FFF7CE
:102EB000BBFF207800F08000802803D1E87B80F001
:102EC0008700E87305B0F0BD2DE9F04F91B0814661
:102ED000884614469A461A9D00200D900E900F9039
:102EE000109009900A900B900C9009AB0DAA5146D6
:102EF0004846FFF7AEFF2046E11704EB1171C1F31E
:102F00000F1734B1E11704EB11710911A4EB011192
:102F100091B32646E01704EB10700011A4EB0012E9
:102F200008EB0711284601F045FBE21704EB12728B
:102F30001211A4EB0212C2F11001A346E21704EB36
:102F400012721211A4EB0212501901F04CFB8021F5
:102F50002046E21704EB12721211A4EB0212A954DC
:102F6000002006E0295C09AA125C51402954411C4A
:102F7000C8B21028F6DB11E0FFE700200AE0791E56
:102F800000EB011118F801100DAA125C51402954F0
:102F9000411CC8B21028F2DB781E87B200200590D1
:102FA000069007900890002615E0002001900290FE
:102FB0000390049008EB0611102201A801F0FAFA20
:102FC00005A80090012301AA5146D9F85400FEF744
:102FD000C4FC701C86B2BE42E7DB05A8009001234A
:102FE0002A465146D9F85400FEF7B7FC11B0BDE8A7
:102FF000F08F2DE9F04194B004460D4617469846EF
:103000003AA1D1E900028968CDE912211190207F0F
:103010008DF84500A08B00128DF84600207B8DF8BE
:103020004700607B8DF84800A07B8DF84900E07B6D
:103030008DF84A00E8B28DF84B0000208DF84C0066
:103040000D900E900F9010900DA804F140030A22ED
:1030500011A900902046FFF737FF27A207CA0AAB45
:1030600007C3E8B28DF8290000208DF82A009DF8EA
:1030700035008DF82C009DF837008DF82D009DF857
:1030800039008DF82E009DF83B008DF82F009DF83B
:103090003D008DF830009DF83F008DF831009DF81F
:1030A00041008DF832009DF843008DF833001C215B
:1030B00003A801F098FA19200290002002A903AB9E
:1030C0000C22CDE900100AA92046FFF776FB064640
:1030D0001EB99DF80C00902819D09EB1304614B04E
:1030E000BDE8F081B0540008985400083300000097
:1030F000000000000001000033000001000000009B
:10310000000000009DF80C00C030C0B2E7E71020BE
:1031100088F8000010220DF10D01384601F04AFA3E
:10312000A08B401CA0833046D9E72DE9F0419CB02C
:1031300004460E4690461F46102F03DD04201CB0A7
:10314000BDE8F0810020189019901A901B900D2175
:1031500014A801F048FA634A07CA11AB07C3A07F5D
:103160008DF84500E08B00128DF84600207B8DF82D
:103170004700607B8DF84800A07B8DF84900E07B1C
:103180008DF84A00F0B28DF84B0000208DF84C000D
:103190003A464146D81E01F00DFA3A46414618A873
:1031A00001F008FA00200D900E900F9010900DA8DD
:1031B00004F14003192211A900902046FFF784FE74
:1031C0001C2249A106A801F0F5F9F0B28DF819000A
:1031D00000208DF81A009DF860008DF81B009DF806
:1031E00061008DF81C009DF862008DF81D009DF8AF
:1031F00063008DF81E009DF864008DF81F009DF897
:1032000065008DF820009DF866008DF821009DF87E
:1032100067008DF822009DF868008DF823009DF866
:1032200069008DF824009DF86A008DF825009DF84E
:103230006B008DF826009DF86C008DF827009DF836
:103240006D008DF828009DF86E008DF829009DF81E
:103250006F008DF82A009DF835008DF82B009DF841
:1032600037008DF82C009DF839008DF82D009DF861
:103270003B008DF82E009DF83D008DF82F009DF845
:103280003F008DF830009DF841008DF831009DF829
:1032900043008DF83200002003900490059009202F
:1032A0000290002002A903AB1B22CDE9001006A961
:1032B0002046FFF782FA05461DB99DF80C009028BC
:1032C00007D00DB128463AE79DF80C00C030C0B2D7
:1032D00035E7E08B401CE083284630E7816D491CD0
:1032E00081657047B4540008A3000000000000008E
:1032F00000000000000000000000000000000000CE
:103300000000000010B50446CC48844208D10121D9
:10331000042000F02DFB0021042000F029FB46E0F2
:10332000C748844208D10121082000F021FB002178
:10333000082000F01DFB3AE0C248844208D1012178
:10334000102000F015FB0021102000F011FB2EE0F2
:10335000BD48844208D10121202000F009FB002152
:10336000202000F005FB22E0B848844208D101216A
:10337000402000F0FDFA0021402000F0F9FA16E0AC
:10338000B348844208D10121802000F0F1FA0021E5
:10339000802000F0EDFA0AE0AE48844207D1012116
:1033A000801500F0E5FA0021A01500F0E1FA10BD4B
:1033B00010B50121084600F0DBFA0021012000F0E1
:1033C000D7FA10BD2DE9F041024600250026002065
:1033D00000230024002791F803C00CF00F0591F89A
:1033E00003C00CF0100CBCF1000F03D091F802C028
:1033F0004CEA050591F800C0BCF1000F31D014680B
:1034000000202BE04FF0010C0CFA00F3B1F800C0E3
:103410000CEA03069E4220D183004FF00F0C0CFAF9
:1034200003F7BC4305FA03FC4CEA040491F803C01B
:10343000BCF1280F06D14FF0010C0CFA00FCC2F8C9
:1034400014C00AE091F803C0BCF1480F05D14FF059
:10345000010C0CFA00FCC2F810C0401C0828D1D3A3
:103460001460B1F800C0BCF1FF0F34DD54680020D7
:103470002EE000F1080C4FF0010808FA0CF3B1F847
:1034800000C00CEA03069E4221D183004FF00F0CCE
:103490000CFA03F7BC4305FA03FC4CEA040491F868
:1034A00003C0BCF1280F05D100F1080C08FA0CF894
:1034B000C2F8148091F803C0BCF1480F07D100F1A5
:1034C000080C4FF0010808FA0CF8C2F81080401CF4
:1034D0000828CED35460BDE8F0814FF6FF7101801B
:1034E000022181700421C170704702460020936858
:1034F0000B400BB1012000E00020704701468868B6
:1035000080B2704702460020D3680B400BB1012007
:1035100000E0002070470146C86880B27047016132
:103520007047416170470AB1016100E04161704735
:10353000C16070474FF480320A43826181618261C9
:1035400082698269704702460020434B18684FF633
:103550008073184040EA021008433F4B18607047E0
:103560003E49C8617047F0B50A4600230024002197
:10357000002500F00046B6F1004F02D1364EF16949
:1035800001E0354E7168C0F3034583B200F4401684
:10359000B6F5401F08D121F070612F4E766826F0F5
:1035A00070662D4F7E6012E000F48016B6F5801F25
:1035B00006D1032606FA05F4A14341F0706106E046
:1035C000460D360103FA06F6B14341F0706122B1AF
:1035D000460D360103FA06F6314300F00046B6F117
:1035E000004F02D11C4EF16101E01B4E7160F0BD35
:1035F00030B500228B071C0F0F2303FA04F2164B81
:1036000008338C1053F824309343134C08348D1036
:1036100044F8253023468C1053F824308C07240FAF
:1036200000FA04F423430C4C08348D1044F8253080
:1036300030BD0A49DC3108607047000000080140D5
:10364000000C01400010014000140140001801402E
:10365000001C014000200140000001400000204209
:10366000DF48006840F00100DD4908600846406816
:10367000DC490840DA49486008460068DA490840F1
:10368000D74908600846006820F480200860084692
:10369000406820F4FE0048604FF41F0088607047C7
:1036A000CF49096821F48031CD4A1160114609687B
:1036B00021F480211160B0F5803F03D0B0F5802F58
:1036C0000ED106E0C649096841F48031C44A116050
:1036D00007E0C349096841F4A021C14A116000E034
:1036E00000BF00BF704710B5014600220023002034
:1036F0004A11012A02D1BA4C236806E0022A02D1FB
:10370000B74C236A01E0B64C636A01F01F02012442
:1037100094401C400CB1012000E0002010BD38B5E1
:10372000002000900024002500BF3120FFF7DBFFC0
:1037300005460098401C00900098B0F5A06F01D09D
:10374000002DF2D03120FFF7CEFF08B1012400E0B8
:103750000024204638BD01460020A14A106820F010
:10376000F80040EAC10010607047A0490860704747
:10377000024600209A4B586820F47C1042EA01036C
:103780001843974B58607047984908667047014640
:103790000020934A506820F00300084350607047AF
:1037A0008F48406800F00C007047014600208C4AAA
:1037B000506820F0F0000843506070470146002038
:1037C000874A506820F4E060084350607047014623
:1037D0000020834A506820F4605040EAC1005060E5
:1037E000704729B17E4A527A02437D4B5A7204E0F7
:1037F0007B4A527A82437A4B5A7270477B49D8315E
:103800000860704701460020754A506820F4404027
:103810000843506070470021714A20321170704A8D
:1038200082F82010012802D004280AD104E00121E6
:103830006B4A2032117005E00521694A203211706F
:1038400000E000BF00BF70476949086070476449E5
:10385000096A0143624A1162704765494439086048
:10386000704730B500210022002400235C4D6D68B4
:1038700005F00C0121B1042905D0082923D105E068
:103880005C4D056022E05B4D05601FE0544D6D68A6
:1038900005F47012524D6D6805F48034022505EB75
:1038A00092421CB9544D554305600BE04C4D6D6878
:1038B00005F400351DB1504D5543056002E04D4DF6
:1038C0005543056002E04B4D056000BF00BF444D0D
:1038D0006D6805F0F0010909484D6B5C0568DD4035
:1038E00045603F4D6D6805F4E061090A434D6B5C2E
:1038F0004568DD4085603A4D6D6805F46051C90A40
:103900003E4D6B5C4568DD40C560354D6D6805F426
:103910004041890B3A4D6B5CC568B5FBF3F5056119
:1039200030BD29B12E4A526902432D4B5A6104E041
:103930002B4A526982432A4B5A61704729B1284A5F
:1039400092690243264B9A6104E0254A92698243B8
:10395000234B9A61704729B1214AD2690243204B17
:10396000DA6104E01E4AD26982431D4BDA61704776
:1039700029B11B4AD2680243194BDA6004E0184AA5
:10398000D2688243164BDA60704729B1144A126933
:103990000243134B1A6104E0114A12698243104B2F
:1039A0001A61704712494039086070470F49C8646E
:1039B00070470B49C87170470948406A40F08070F1
:1039C00007494862704701460020054A92680A404C
:1039D0000AB1012000E00020704701498872704759
:1039E000001002400000FFF8FFFFF6FE0000424218
:1039F0008004424200127A0000093D0007000020C6
:103A00001700002010B50446BE48844208D10121A9
:103A10008014FFF7ADFF0021A014FFF7A9FF16E007
:103A2000B948844208D101210014FFF7AEFF0021FC
:103A30002014FFF7AAFF0AE0B448844207D101210D
:103A4000C013FFF7A2FF0021E013FFF79EFF10BD98
:103A500010B50022028802F441520B884C8823439F
:103A60008C882343CC8823430C8923434C892343EC
:103A70008C892343CC8923431A430280838B4FF2E2
:103A8000FF74234083830B8A038210BD2DE9F04F1E
:103A900085B005460C464FF0000902274FF000089C
:103AA0004FF0010B0026B246A88B4FF240010840B0
:103AB000A88302202884B5F81C90A068022801D1B0
:103AC00000BF38E0A08810B94FF0010B01E04FF0C3
:103AD000020B8D48854200D100E000BF6846FFF729
:103AE000C0FEDDF800A0E088B0F5007F0AD14FEA03
:103AF0001A2000EB80004000A168B0FBF1F0401DEF
:103B000086B20BE04FEA4B10BAFBF0F000EB8000FE
:103B10004000A168B0FBF1F0401D86B20A20B6FB60
:103B2000F0F606F00108A6EB0800C0F34F074FF6C9
:103B3000FF7000EA0828022F01DBFF2F02DD0227B9
:103B40004FF00008E08840EA080038432884A08845
:103B5000A1890843618808432188084340F4006034
:103B600040EA0909A5F81C9005B0BDE8F08F0021D6
:103B7000018041808180C180018141818181C18139
:103B80000721018270470021018041808180C1802E
:103B90000221816000218181704721B1028842F0B9
:103BA0004002028004E002884FF6BF731A40028090
:103BB000704721B1828B42F48062828304E0828B61
:103BC0004FF6FF331A408283704730B5002400233C
:103BD0000C110125A540ABB21AB185881D43858023
:103BE00002E085889D43858030BD1AB183880B43F0
:103BF000838002E083888B43838070478181704794
:103C00000146888970474FF6FF62914204D00288CE
:103C100042F48072028004E002884FF6FF631A408B
:103C20000280704721B1828842F00402828004E061
:103C300082884FF6FB731A408280704702884FF2E9
:103C4000FF731A40028002880A430280704701888D
:103C500041F480510180704721B1028842F4005242
:103C6000028004E002884DF6FF731A40028070471C
:103C700002460020012901D0108B00E0908A704795
:103C80000146088A7047B1F5804F04D1028842F49A
:103C90008042028004E002884BF6FF731A400280E3
:103CA00070470246002013890B400BB1012000E051
:103CB00000207047CA4302817047F0B502460020D9
:103CC00000240023002501F00F070126BE40B4B2F6
:103CD0000B1101269E40B3B2968806EA03051689A9
:103CE000264016B10DB1012000E00020F0BD10B556
:103CF000002201F00F040123A3409AB2D3430381B1
:103D000010BD00000030014000380040003C004081
:103D100010B50446FB48844209D101218803FFF70E
:103D200027FE00214FF48040FFF722FE32E0F648E4
:103D3000844209D101214804FFF727FE00214FF4F6
:103D40000030FFF722FE25E0F048844209D101212E
:103D50008804FFF71AFE00214FF48020FFF715FEBC
:103D600018E0EB48844209D10121C804FFF70DFE99
:103D700000214FF40020FFF708FE0BE0E5488442E5
:103D800008D101210805FFF700FE00214FF4801043
:103D9000FFF7FBFD10BD2DE9F04786B005460E4646
:103DA0000024A24600BFA1460027B08900B100BF91
:103DB0002F462C8A4CF6FF700440F08804432C8276
:103DC000AC894EF6F3100440B088318908437189FC
:103DD00008430443AC81AC8A4FF6FF400440B089ED
:103DE0000443AC8201A8FFF73CFDC648874202D1DC
:103DF000DDF810A001E0DDF80CA0A88900F4004077
:103E000040B10AEBCA0000EB0A1031684900B0FB70
:103E1000F1F807E00AEBCA0000EB0A1031688900EC
:103E2000B0FBF1F86420B8FBF0F004012009642134
:103E300001FB1089A88900F4004040B1322000EB5A
:103E4000C900B0FBF1F000F00700044308E03220A5
:103E500000EB09106421B0FBF1F000F00F00044307
:103E60002C8106B0BDE8F0874FF4165101600021A7
:103E70008180C18001810C214181002181817047B5
:103E800010B502460020108A4FF2FF0318400B883D
:103E90004C8823438C882343CC88234318431082C7
:103EA00010BD0021018041808180C180704721B117
:103EB000828942F40052828104E082894DF6FF73C8
:103EC0001A4082817047F0B5034600240026002581
:103ED000002040F66A17B94200D100BF1846C1F36E
:103EE000421401F01F06012707FA06F5012C01D143
:103EF0000C3004E0022C01D1103000E014301AB173
:103F000007682F43076002E00768AF430760F0BD12
:103F10001AB1838A0B43838202E0838A8B438382B4
:103F20007047028A4FF6F0731A400282028A0A43EF
:103F30000282704782894FF2FF731A408281828920
:103F40000A438281704721B1828942F00202828154
:103F500004E082894FF6FD731A4082817047028A1D
:103F60004FF6DF731A400282028A0A4302827047C8
:103F700021B1028A42F48042028204E0028A4BF6B6
:103F8000FF731A4002827047C1F3080282807047B3
:103F900001468888C0F308007047818941F001011B
:103FA00081817047028BD2B20283028B42EA0122E6
:103FB00002837047028B02F47F420283028B0A4322
:103FC0000283704721B1828A42F02002828204E09B
:103FD000828A4FF6DF731A408282704721B1828A4B
:103FE00042F01002828204E0828A4FF6EF731A4098
:103FF0008282704721B1828A42F00802828204E004
:10400000828A4FF6F7731A408282704721B1828903
:1040100042F40042828103E08289C2F30E0282816F
:10402000704721B1828A42F40062828204E0828A6F
:104030004FF2FF731A4082827047828A4FF6FB73F9
:104040001A408282828A0A438282704721B1828A20
:1040500042F00202828204E0828A4FF6FD731A4027
:104060008282704702460020B1F5007F00D100BF78
:1040700013880B400BB1012000E00020704701F4D1
:104080000072B2F5007F00D100BFCA4302807047C2
:1040900070B50246002400230025002040F66A1671
:1040A000B14200D100BFC1F3421501F01F03012648
:1040B00006FA03F3012D02D19689334006E0022D62
:1040C00002D1168A334001E0968A33400C12012651
:1040D00006FA04F41688344013B10CB1012000E054
:1040E000002070BD10B50022002340F66A14A142E2
:1040F00000D100BF0A1201249440A3B2DC43048023
:1041000010BD00000038014000440040004800405D
:10411000004C00400050004070B505460C46012D93
:1041200071D19E48406940F001009C494861082CCB
:1041300060D2DFE804F05F04101C293643500020F1
:10414000974988600F2048600B2000F01EF90B2073
:1041500000F007F94EE000209149C861F020486066
:104160000C2000F012F90C2000F0FBF842E00020D7
:104170008B4908634FF4706048600D2000F005F92A
:104180000D2000F0EEF835E00020854948644FF43A
:10419000704048600E2000F0F8F80E2000F0E1F8C2
:1041A00028E000207E4988654FF4702048600F2089
:1041B00000F0EBF80F2000F0D4F81BE00020784965
:1041C000C8664FF470004860102000F0DEF8102040
:1041D00000F0C7F80EE000207149803108604FF010
:1041E00070606F494860112000F0CFF8112000F096
:1041F000B8F800BF00BF0120A0406A490978084311
:104200006849087000BF00BF70BD70B505460C4618
:10421000012D4AD1082C37D2DFE804F036040B1206
:104220001920272E0B2000F0A7F800205C49886099
:104230002AE00C2000F0A0F800205949C86123E0D2
:104240000D2000F099F80020554908631CE00E206D
:1042500000F092F800205249486415E00F2000F069
:104260008BF800204E4988650EE0102000F084F89D
:1042700000204B49C86607E0112000F07DF80020BF
:1042800047498031086000BF00BF0120A040454978
:104290000978814343480170007828B93F48406954
:1042A00020F001003D49486100BF00BF70BD70476C
:1042B00070477047704770477047704710B538486F
:1042C000006800F00F04364844602046FFF7EFFF17
:1042D00010BD10B532480068C0F303142001304906
:1042E00048602046FFF7E4FF10BD10B52C48006879
:1042F000C0F3032420022A4948602046FFF7D9FF73
:1043000010BD10B526480068C0F3033420032449CB
:1043100048602046FFF7CEFF10BD10B5204800686A
:10432000C0F3034420041E4948602046FFF7C3FF42
:1043300010BD10B51A480068C0F303542005184991
:1043400048602046FFF7B8FF10BD10B5144800685C
:10435000C0F303642006124948602046FFF7ADFF12
:1043600010BD00F01F02012191404209920002F1AC
:10437000E022C2F80011704700F01F0201219140B5
:10438000094A430942F82310704700F01F02012137
:104390009140064A430942F823107047001002403A
:1043A000000002401B00002080E100E080E200E00D
:1043B0000648804706480047FEE7FEE7FEE7FEE7BF
:1043C000FEE7FEE7FEE7FEE7FEE7FEE7B344000890
:1043D000ED0000080CB50020019000906C480068CA
:1043E00040F480306A49086000BF6948006800F402
:1043F000003000900198401C0190009818B9019875
:10440000B0F5A06FF1D16248006800F4003010B13F
:104410000120009001E0002000900098012843D185
:104420005C48006840F010005A490860084600687F
:1044300020F0030008600846006840F002000860B1
:1044400053484068524948600846406848600846FA
:10445000406840F4806048600846406820F47C1062
:1044600048600846406840F4E81048600846006824
:1044700040F08070086000BF4548006800F00070A0
:104480000028F9D04248406820F0030040494860C5
:104490000846406840F00200486000BF3C48406861
:1044A00000F00C000828F9D10CBD10B5FFF792FF01
:1044B00010BD10B53648006840F00100344908606E
:1044C0000846406834490840314948600846006859
:1044D000324908402E4908600846006820F48020D0
:1044E00008600846406820F4FE0048604FF41F0052
:1044F0008860FFF7DAFF4FF000602949086010BDBF
:1045000010B5002100200022214B5B6803F00C0154
:1045100021B1042906D0082928D107E0214B224CDB
:10452000236027E01F4B204C236023E0184B5B687F
:1045300003F47010164B5B6803F48032022303EB24
:10454000904022B9194B4343174C23600DE0104BA8
:104550005B6803F4003323B1144B4343124C2360D4
:1045600003E0104B4343104C236003E00D4B0E4C13
:10457000236000BF00BF064B5B68C3F303130C4C02
:10458000E15C094B1B68CB40074C236010BD000069
:1045900000100240002002400000FFF8FFFFF6FE7E
:1045A00008ED00E000127A001C00002000093D0028
:1045B0002000002040EA01039B0703D009E008C95E
:1045C000121F08C0042AFAD203E011F8013B00F8D8
:1045D000013B521EF9D27047D2B201E000F8012B24
:1045E000491EFBD270470022F6E710B513460A4673
:1045F00004461946FFF7F0FF204610BD70B5054C84
:10460000054D03E0206820448047241DAC42F9D1C9
:1046100070BD0000685500086C550008F0B480EAD1
:104620000102D40F4200B2EB410F02D2024608460B
:1046300011464A0042D0C30DDDB2C1F3C752AD1AD4
:10464000202D35DAC1F3160141F4000204B15242C3
:10465000C5F1200602FA06F12A411044B3EBD05FFF
:1046600023D0C4B1012DA0EBC35009DCF0BC4FF046
:10467000004202EAC352DBB200F5000000F0C0B80D
:10468000400000F1807000EBC350A0F1807040EA60
:10469000D170490009E0490841EAC071A0EBC3505C
:1046A00000F50000400800EBC350F0BC00F09FB8DC
:1046B0006142012202EB4101001BF6E7F0BC7047AA
:1046C00081F00041AAE780F00040A7E730B480EA1B
:1046D000010202F0004530F0004221F0004013D00A
:1046E00090B1C30DD40DC2F31601C0F31600E41A45
:1046F00041F4000140F400027D34914201D3641C76
:1047000000E04900002C02DA30BC002070474FF472
:1047100000000023914201D3891A034340084FEA65
:104720004101F7D151B1914202D14FF0004105E072
:1047300002D24FF0010101E06FF0010103EBC45020
:10474000284430BC00F053B8C10F80EAE070084440
:10475000CA079623002100F053B896230022114681
:1047600000F04EB820F00040C10DC0F3160040F438
:1047700000007F2901DA00207047962903DCC1F18F
:104780009601C84070479639884070472DE9F05F20
:104790000546002092469B468846064681464024B0
:1047A0001BE0284641464746224600F078F853462B
:1047B0005A46C01A914110D311461846224600F0BD
:1047C0005FF82D1A67EB01084F46224601200021B1
:1047D00000F056F817EB00094E41201EA4F1010429
:1047E000DFDC484631462A464346BDE8F09F0029B3
:1047F000A8BF7047401C490008BF20F00100704767
:1048000010B4B0FA80FC00FA0CF050EA010404BFC6
:1048100010BC704749B1CCF1200421FA04F411FA1C
:104820000CF118BF012121430843A3EB0C01CB1D60
:104830004FEA00614FEA102042BF002010BC7047D1
:1048400000EBC35010440029A4BF10BC7047401CAB
:10485000490008BF20F0010010BC7047064C074D0E
:1048600006E0E06840F0010394E807009847103440
:10487000AC42F6D3FBF73EFC4855000868550008EB
:10488000202A04DB203A00FA02F100207047914010
:10489000C2F1200320FA03F3194390407047202A05
:1048A00004DB203A21FA02F00021704721FA02F3DA
:1048B000D040C2F1200291400843194670470000E1
:1048C0000FB4054B10B503A9044A029800F018F87C
:1048D00010BC5DF814FB0000190100083000002036
:1048E00002E008C8121F08C1002AFAD170477047B9
:1048F000002001E001C1121F002AFBD17047000017
:104900002DE9FF4F8DB00F460546002606E025280D
:104910000BD0DDE90F1290476D1C761C287800281B
:10492000F5D111B03046BDE8F08F0024A246A14673
:104930000122EC4900E0044315F8013F203B02FA54
:1049400003F00842F7D128782A2810D06FF02F0200
:104950002878A0F13001092914D80AEB8A0102EB6A
:10496000410144F0020400EB010A6D1CF0E701CFA5
:104970005FEA000A03D544F40054CAF1000A44F087
:1049800002046D1C28782E2817D115F8010F44F069
:1049900004042A280ED06FF02F022878A0F13001ED
:1049A00009290AD809EB890102EB410100EB010951
:1049B0006D1CF2E757F8049B6D1C28786C280FD00B
:1049C00006DC4C2817D068280DD06A2814D104E0E2
:1049D000742810D07A280FD10DE044F400140AE0B6
:1049E00044F4801401E044F440146978814202D117
:1049F00004F580146D1C6D1C2A786E2A1FD00CDC07
:104A0000632A31D004DC002A8BD0582A11D1A3E0CC
:104A1000642A68D0692A0CD165E0732A2ED004DCA0
:104A20006F2A73D0702A04D19BE0752A6FD0782A40
:104A30006ED01046DDE90F129047761C50E1C4F3AA
:104A40000250022806D0032809D0042801CF09D03B
:104A5000066045E101CFF117C0E9006140E101CFF7
:104A600006803DE106703BE117F8040B8DF800006D
:104A700000208DF80100EB46012003E057F804BB4D
:104A80004FF0FF3061074FF0000102D40DE008F154
:104A90000101884649450FDA8045F8DB1BF808100C
:104AA0000029F4D108E008F1010188468142FADBCF
:104AB0001BF808100029F6D1DDE90F23AAEB080046
:104AC0008146214600F036F9304400EB080604E048
:104AD000DDE90F121BF8010B9047B8F10108F7D27E
:104AE00021464846F7E00A21C4F302534FF0000B79
:104AF0000891022B04D001CFC117032B09D00AE083
:104B0000FF1D27F00707F7E8020108E032E01FE089
:104B100020E000B2C117042B01D140B2C117031E1F
:104B200071F1000307DA4FF0000CD0EB0C006CEBD6
:104B300001012D2302E0230504D52B238DF8243019
:104B4000012303E0E30701D02023F7E7984658E06C
:104B50000A2110E010210EE010204FF0000B089009
:104B60000CE010214FF0000B44F004044FF0080952
:104B7000089103E008214FF0000B0891C4F30253A1
:104B8000022B04D001CF0021032B06D006E0FF1D2D
:104B900027F00707F7E8020103E080B2042B00D1F9
:104BA000C0B24FF0000823072BD5702A07D0DDF8DC
:104BB00020C08CF0100C5CEA0B0C05D00EE04023FA
:104BC0008DF82430012308E050EA010306D0302399
:104BD0008DF824308DF8252002239846DDF820C07A
:104BE0008CF0080C5CEA0B0C0BD150EA010301D1EC
:104BF000630706D530238DF824304FF00108A9F162
:104C00000109582A04D038A20B9208AA0A920BE094
:104C10003AA2F9E75B46089AFFF7B8FD0B9B9B5C4D
:104C20000A9A521E0A92137050EA0102F2D10A98AF
:104C3000ADEB000000F1200B600702D524F48034B6
:104C400001E04FF00109D94502DDA9EB0B0000E0BE
:104C5000002000EB0B0141440890AAEB010AE0039D
:104C600006D4DDE90F232146504600F063F80644E0
:104C70004FF0000908E009A911F80900DDE90F1259
:104C8000904709F10109761CC145F4DBE0030CD51E
:104C9000DDE90F232146504600F04CF8064404E0BD
:104CA000DDE90F1230209047761C0899481E0890C5
:104CB0000029F5DC08E00A980A990078491C0A9155
:104CC000DDE90F129047761CBBF10001ABF1010B3F
:104CD000F1DC21465046DDE90F2300F019F80644C7
:104CE0006D1C1BE60928010030313233343536376C
:104CF0003839616263646566000000003031323328
:104D000034353637383941424344454600000000C7
:104D10002DE9F041044600251E461746880404D4B8
:104D200005E039462020B0476D1C641EF9D52846A1
:104D3000BDE8F0812DE9F041044600251E4690466D
:104D4000C80301D5302700E02027880404D505E0FA
:104D500041463846B0476D1C641EF9D52846BDE86B
:104D6000F0810000FFFFFFFFFFFFFFFFFFFFFFFFDE
:104D7000FFFFFFFFFFFFFFFFFFFF0000000000003D
:104D80001706162741000000000000000000000088
:104D90000000000000000000000000000000000013
:104DA0000000000000000000000000000000000003
:104DB00000000000000000000000000000000000F3
:104DC00000000000000000000000000000000000E3
:104DD00000000000000000000000000000000000D3
:104DE00000000000000000000000000000000000C3
:104DF00000000000000000000000000000000000B3
:104E000000000000000000000000000000000000A2
:104E10000000000000000000000000000000000092
:104E20000000000000000000000000000000000082
:104E30000000005F00000007000700147F147F14CB
:104E4000242A7F2A124C2C106864364955225000BF
:104E500005030000001C2241000041221C00140830
:104E60003E081408083E08080000503000101010DA
:104E70001010006060000020100804023E514945F7
:104E80003E00427F400042615149462141454B313D
:104E90001814127F1027454545393C4A49493001CD
:104EA000710905033649494936064949291E003624
:104EB0003600000056360000081422410014141475
:104EC0001414004122140802015109063C425A56AA
:104ED0000C7E1111117E7F494949363E41414122E4
:104EE0007F4141221C7F494949417F090909013E0F
:104EF0004149497A7F0808087F00417F41002040EE
:104F0000413F017F081422417F404040407F020C16
:104F1000027F7F0408107F3E4141413E7F0909091D
:104F2000063E4151215E7F091929464649494931CA
:104F300001017F01013F4040403F1F2040201F3FB3
:104F40004038403F63140814630708700807615134
:104F5000494543007F4141000204081020004141BF
:104F60007F0004020102044040404040000102046E
:104F70000020545454787F484444383844444420F2
:104F8000384444487F3854545418087E0901020CB0
:104F90005252523E7F0804047800447D4000204075
:104FA000443D007F1028440000417F40007C0418ED
:104FB00004787C0804047838444444387C1414147D
:104FC00008081414187C7C0804040848545454201D
:104FD000043F4440203C4040207C1C2040201C3C9E
:104FE0004030403C44281028440C5050503C44640D
:104FF000544C44000836410000007F000000413658
:10500000080008040810080000000000000000006C
:105010000000000000000000000000000000000090
:10502000000000000040004000400404FF0404248D
:1050300024FF2424287CAAAA82000000000000008B
:105040000000000000000000000000000000000060
:105050000000000000000000000000000000000050
:105060000000060500000000050300060500060517
:105070000503000503183C3C3C180000000000003C
:1050800000000000784848780000000000000000A0
:105090000000000000000000000000000000000010
:1050A0000000000000000000000000000000000000
:1050B00000000000000000000000000000000000F0
:1050C000221C141C227E020202030000E700004A98
:1050D00095A5A9527C5554454400182424003E4906
:1050E00049412208142A1422040404040C0008086C
:1050F0000800000000000000457C450000040A0490
:105100000044445F444400417F410000007A0000B5
:105110000078080C0000FC203C200C1EFE02FE0063
:105120001818000039545449007810207B03385473
:1051300054440022142A140800000000000000005B
:105140000000000000000000547044007C121112A6
:105150007C7F494949317F494949367F0101010135
:10516000603F213F607F4949494177087F087722A6
:10517000414949367F1008047F7E1009047E7F086C
:10518000142241403E01017F7F020C027F7F08080C
:10519000087F3E4141413E7F0101017F7F090909AE
:1051A000063E4141412201017F0101074848483F35
:1051B0000E117F110E63140814633F20203F600717
:1051C0000808087F7F407E407F3F203F207F017F8F
:1051D0004848307F4830007F007F484830224149AE
:1051E000493E7F083E413E462919097F20545454C8
:1051F000783C4A4A4A317C545428007C04040C0010
:10520000603C243C6038545454186C107C106C0082
:10521000445454287C2010087C7C2112097C7C108A
:10522000284400403804047C7C0810087C7C101062
:10523000107C38444444387C0404047C7C141414EA
:1052400008384444440004047C04040C5050503C8E
:1052500008147C140844281028443C20203C600C8E
:105260001010107C7C407C407C3C203C207C047CEA
:105270005050207C5020007C007C5050202844540A
:1052800054387C10384438485434147C637C777B21
:10529000F26B6FC53001672BFED7AB76CA82C97D32
:1052A000FA5947F0ADD4A2AF9CA472C0B7FD9326C3
:1052B000363FF7CC34A5E5F171D8311504C723C3C7
:1052C0001896059A071280E2EB27B27509832C1A0B
:1052D0001B6E5AA0523BD6B329E32F8453D100ED65
:1052E00020FCB15B6ACBBE394A4C58CFD0EFAAFB49
:1052F000434D338545F9027F503C9FA851A3408F11
:10530000929D38F5BCB6DA2110FFF3D2CD0C13EC28
:105310005F974417C4A77E3D645D197360814FDCBD
:10532000222A908846EEB814DE5E0BDBE0323A0AA1
:105330004906245CC2D3AC629195E479E7C8376D25
:105340008DD54EA96C56F4EA657AAE08BA78252E4A
:105350001CA6B4C6E8DD741F4BBD8B8A703EB566D3
:105360004803F60E613557B986C11D9EE1F89811C4
:1053700069D98E949B1E87E9CE5528DF8CA1890DB3
:10538000BFE6426841992D0FB054BB1652096AD549
:105390003036A538BF40A39E81F3D7FB7CE339822A
:1053A0009B2FFF87348E4344C4DEE9CB547B943279
:1053B000A6C2233DEE4C950B42FAC34E082EA166C1
:1053C00028D924B2765BA2496D8BD12572F8F66498
:1053D00086689816D4A45CCC5D65B6926C70485013
:1053E000FDEDB9DA5E154657A78D9D8490D8AB00C8
:1053F0008CBCD30AF7E45805B8B34506D02C1E8FF1
:10540000CA3F0F02C1AFBD0301138A6B3A9111412C
:105410004F67DCEA97F2CFCEF0B4E67396AC742215
:10542000E7AD3585E2F937E81C75DF6E47F11A7193
:105430001D29C5896FB7620EAA18BE1BFC563E4BCC
:10544000C6D279209ADBC0FE78CD5AF41FDDA8338E
:105450008807C731B11210592780EC5F60517FA9CE
:1054600019B54A0D2DE57A9F93C99CEFA0E03B4DFD
:10547000AE2AF5B0C8EBBB3C83539961172B047E71
:10548000BA77D626E169146355210C7D0102040820
:10549000102040801B3600000001020304050607AF
:1054A00008090A0B0C0D0E0FA80000007200000086
:1054B00072000000A30000000000000000000000D7
:1054C00044656C6179203320736563207374617265
:1054D0007420696E697420746F204C310D0A526516
:1054E0006D6F76652063617264204E4F5720696648
:1054F00020696E6974206E6F74206E6565646564E2
:105500000D0A000044656C617920332073656320C7
:10551000737461727420696E697420746F204C33E7
:105520000D0A52656D6F76652063617264204E4F7F
:105530005720696620696E6974206E6F74206E65ED
:10554000656465640D0A00006C55000800000020C9
:1055500030000000E04800089C55000830000020A2
:1055600098040000F04800081DB3FFFF0000000091
:105570000000000000000001020304010203040611
:10558000070809020406080000A24A0400000000FF
:0C559000000000000102030406070809E7
:04000005080000ED02
:00000001FF
